{
  "contractName": "Election",
  "abi": [
    {
      "inputs": [],
      "payable": false,
      "stateMutability": "nonpayable",
      "type": "constructor"
    },
    {
      "constant": true,
      "inputs": [
        {
          "internalType": "uint256",
          "name": "",
          "type": "uint256"
        }
      ],
      "name": "candidates",
      "outputs": [
        {
          "internalType": "uint256",
          "name": "id",
          "type": "uint256"
        },
        {
          "internalType": "string",
          "name": "name",
          "type": "string"
        },
        {
          "internalType": "uint256",
          "name": "voteCount",
          "type": "uint256"
        }
      ],
      "payable": false,
      "stateMutability": "view",
      "type": "function"
    },
    {
      "constant": true,
      "inputs": [],
      "name": "candidatesCount",
      "outputs": [
        {
          "internalType": "uint256",
          "name": "",
          "type": "uint256"
        }
      ],
      "payable": false,
      "stateMutability": "view",
      "type": "function"
    },
    {
      "constant": true,
      "inputs": [
        {
          "internalType": "address",
          "name": "",
          "type": "address"
        }
      ],
      "name": "voters",
      "outputs": [
        {
          "internalType": "bool",
          "name": "",
          "type": "bool"
        }
      ],
      "payable": false,
      "stateMutability": "view",
      "type": "function"
    },
    {
      "constant": true,
      "inputs": [
        {
          "internalType": "uint256",
          "name": "",
          "type": "uint256"
        }
      ],
      "name": "wm1Candidates",
      "outputs": [
        {
          "internalType": "uint256",
          "name": "id",
          "type": "uint256"
        },
        {
          "internalType": "string",
          "name": "name",
          "type": "string"
        },
        {
          "internalType": "uint256",
          "name": "voteCount",
          "type": "uint256"
        }
      ],
      "payable": false,
      "stateMutability": "view",
      "type": "function"
    },
    {
      "constant": true,
      "inputs": [],
      "name": "wm1CandidatesCount",
      "outputs": [
        {
          "internalType": "uint256",
          "name": "",
          "type": "uint256"
        }
      ],
      "payable": false,
      "stateMutability": "view",
      "type": "function"
    },
    {
      "constant": true,
      "inputs": [
        {
          "internalType": "address",
          "name": "",
          "type": "address"
        }
      ],
      "name": "wm1Voters",
      "outputs": [
        {
          "internalType": "bool",
          "name": "",
          "type": "bool"
        }
      ],
      "payable": false,
      "stateMutability": "view",
      "type": "function"
    },
    {
      "constant": true,
      "inputs": [
        {
          "internalType": "uint256",
          "name": "",
          "type": "uint256"
        }
      ],
      "name": "wm2Candidates",
      "outputs": [
        {
          "internalType": "uint256",
          "name": "id",
          "type": "uint256"
        },
        {
          "internalType": "string",
          "name": "name",
          "type": "string"
        },
        {
          "internalType": "uint256",
          "name": "voteCount",
          "type": "uint256"
        }
      ],
      "payable": false,
      "stateMutability": "view",
      "type": "function"
    },
    {
      "constant": true,
      "inputs": [],
      "name": "wm2CandidatesCount",
      "outputs": [
        {
          "internalType": "uint256",
          "name": "",
          "type": "uint256"
        }
      ],
      "payable": false,
      "stateMutability": "view",
      "type": "function"
    },
    {
      "constant": true,
      "inputs": [
        {
          "internalType": "address",
          "name": "",
          "type": "address"
        }
      ],
      "name": "wm2Voters",
      "outputs": [
        {
          "internalType": "bool",
          "name": "",
          "type": "bool"
        }
      ],
      "payable": false,
      "stateMutability": "view",
      "type": "function"
    },
    {
      "constant": true,
      "inputs": [
        {
          "internalType": "uint256",
          "name": "",
          "type": "uint256"
        }
      ],
      "name": "wm3Candidates",
      "outputs": [
        {
          "internalType": "uint256",
          "name": "id",
          "type": "uint256"
        },
        {
          "internalType": "string",
          "name": "name",
          "type": "string"
        },
        {
          "internalType": "uint256",
          "name": "voteCount",
          "type": "uint256"
        }
      ],
      "payable": false,
      "stateMutability": "view",
      "type": "function"
    },
    {
      "constant": true,
      "inputs": [],
      "name": "wm3CandidatesCount",
      "outputs": [
        {
          "internalType": "uint256",
          "name": "",
          "type": "uint256"
        }
      ],
      "payable": false,
      "stateMutability": "view",
      "type": "function"
    },
    {
      "constant": true,
      "inputs": [
        {
          "internalType": "address",
          "name": "",
          "type": "address"
        }
      ],
      "name": "wm3Voters",
      "outputs": [
        {
          "internalType": "bool",
          "name": "",
          "type": "bool"
        }
      ],
      "payable": false,
      "stateMutability": "view",
      "type": "function"
    },
    {
      "constant": true,
      "inputs": [
        {
          "internalType": "uint256",
          "name": "",
          "type": "uint256"
        }
      ],
      "name": "wm4Candidates",
      "outputs": [
        {
          "internalType": "uint256",
          "name": "id",
          "type": "uint256"
        },
        {
          "internalType": "string",
          "name": "name",
          "type": "string"
        },
        {
          "internalType": "uint256",
          "name": "voteCount",
          "type": "uint256"
        }
      ],
      "payable": false,
      "stateMutability": "view",
      "type": "function"
    },
    {
      "constant": true,
      "inputs": [],
      "name": "wm4CandidatesCount",
      "outputs": [
        {
          "internalType": "uint256",
          "name": "",
          "type": "uint256"
        }
      ],
      "payable": false,
      "stateMutability": "view",
      "type": "function"
    },
    {
      "constant": true,
      "inputs": [
        {
          "internalType": "address",
          "name": "",
          "type": "address"
        }
      ],
      "name": "wm4Voters",
      "outputs": [
        {
          "internalType": "bool",
          "name": "",
          "type": "bool"
        }
      ],
      "payable": false,
      "stateMutability": "view",
      "type": "function"
    },
    {
      "constant": false,
      "inputs": [
        {
          "internalType": "uint256",
          "name": "_candidateId",
          "type": "uint256"
        }
      ],
      "name": "vote",
      "outputs": [],
      "payable": false,
      "stateMutability": "nonpayable",
      "type": "function"
    },
    {
      "constant": false,
      "inputs": [
        {
          "internalType": "uint256",
          "name": "_candidateId",
          "type": "uint256"
        }
      ],
      "name": "wm1Vote",
      "outputs": [],
      "payable": false,
      "stateMutability": "nonpayable",
      "type": "function"
    },
    {
      "constant": false,
      "inputs": [
        {
          "internalType": "uint256",
          "name": "_candidateId",
          "type": "uint256"
        }
      ],
      "name": "wm2Vote",
      "outputs": [],
      "payable": false,
      "stateMutability": "nonpayable",
      "type": "function"
    },
    {
      "constant": false,
      "inputs": [
        {
          "internalType": "uint256",
          "name": "_candidateId",
          "type": "uint256"
        }
      ],
      "name": "wm3Vote",
      "outputs": [],
      "payable": false,
      "stateMutability": "nonpayable",
      "type": "function"
    },
    {
      "constant": false,
      "inputs": [
        {
          "internalType": "uint256",
          "name": "_candidateId",
          "type": "uint256"
        }
      ],
      "name": "wm4Vote",
      "outputs": [],
      "payable": false,
      "stateMutability": "nonpayable",
      "type": "function"
    }
  ],
  "bytecode": "0x60806040523480156200001157600080fd5b50620000586040518060400160405280601481526020017f43686169726d616e2043616e64696461746520310000000000000000000000008152506200054a60201b60201c565b6200009e6040518060400160405280601481526020017f43686169726d616e2043616e64696461746520320000000000000000000000008152506200054a60201b60201c565b620000e46040518060400160405280601481526020017f43686169726d616e2043616e64696461746520330000000000000000000000008152506200054a60201b60201c565b6200012a6040518060400160405280601981526020017f576f72642d31204d656d6265722043616e646964617465203100000000000000815250620005c860201b60201c565b620001706040518060400160405280601981526020017f576f72642d31204d656d6265722043616e646964617465203200000000000000815250620005c860201b60201c565b620001b66040518060400160405280601981526020017f576f72642d31204d656d6265722043616e646964617465203300000000000000815250620005c860201b60201c565b620001fc6040518060400160405280601981526020017f576f72642d31204d656d6265722043616e646964617465203400000000000000815250620005c860201b60201c565b620002426040518060400160405280601981526020017f576f72642d31204d656d6265722043616e646964617465203500000000000000815250620005c860201b60201c565b620002886040518060400160405280601981526020017f576f72642d32204d656d6265722043616e6469646174652031000000000000008152506200064660201b60201c565b620002ce6040518060400160405280601981526020017f576f72642d32204d656d6265722043616e6469646174652032000000000000008152506200064660201b60201c565b620003146040518060400160405280601981526020017f576f72642d32204d656d6265722043616e6469646174652033000000000000008152506200064660201b60201c565b6200035a6040518060400160405280601981526020017f576f72642d32204d656d6265722043616e6469646174652034000000000000008152506200064660201b60201c565b620003a06040518060400160405280601981526020017f576f72642d32204d656d6265722043616e6469646174652035000000000000008152506200064660201b60201c565b620003e66040518060400160405280601981526020017f576f72642d33204d656d6265722043616e646964617465203100000000000000815250620006c460201b60201c565b6200042c6040518060400160405280601981526020017f576f72642d33204d656d6265722043616e646964617465203200000000000000815250620006c460201b60201c565b620004726040518060400160405280601981526020017f576f72642d33204d656d6265722043616e646964617465203300000000000000815250620006c460201b60201c565b620004b86040518060400160405280601981526020017f576f72642d33204d656d6265722043616e646964617465203400000000000000815250620006c460201b60201c565b620004fe6040518060400160405280601981526020017f576f72642d34204d656d6265722043616e6469646174652031000000000000008152506200074260201b60201c565b620005446040518060400160405280601981526020017f576f72642d34204d656d6265722043616e6469646174652032000000000000008152506200074260201b60201c565b6200086f565b600a600081548092919060010191905055506040518060600160405280600a548152602001828152602001600081525060056000600a548152602001908152602001600020600082015181600001556020820151816001019080519060200190620005b7929190620007c0565b506040820151816002015590505050565b600b600081548092919060010191905055506040518060600160405280600b548152602001828152602001600081525060066000600b54815260200190815260200160002060008201518160000155602082015181600101908051906020019062000635929190620007c0565b506040820151816002015590505050565b600c600081548092919060010191905055506040518060600160405280600c548152602001828152602001600081525060076000600c548152602001908152602001600020600082015181600001556020820151816001019080519060200190620006b3929190620007c0565b506040820151816002015590505050565b600d600081548092919060010191905055506040518060600160405280600d548152602001828152602001600081525060086000600d54815260200190815260200160002060008201518160000155602082015181600101908051906020019062000731929190620007c0565b506040820151816002015590505050565b600e600081548092919060010191905055506040518060600160405280600e548152602001828152602001600081525060096000600e548152602001908152602001600020600082015181600001556020820151816001019080519060200190620007af929190620007c0565b506040820151816002015590505050565b828054600181600116156101000203166002900490600052602060002090601f016020900481019282601f106200080357805160ff191683800117855562000834565b8280016001018555821562000834579182015b828111156200083357825182559160200191906001019062000816565b5b50905062000843919062000847565b5090565b6200086c91905b80821115620008685760008160009055506001016200084e565b5090565b90565b61117b806200087f6000396000f3fe608060405234801561001057600080fd5b506004361061012c5760003560e01c8063732ab2c5116100ad578063a3ec138d11610071578063a3ec138d14610649578063a66da3e7146106a5578063a9e9090f1461075a578063e68ae342146107b6578063fe07a969146107e45761012c565b8063732ab2c5146104905780637aaaff4514610545578063855a034c146105a15780638c6fd97e146105cf57806390fb8a7a146105ed5761012c565b8063383853fc116100f4578063383853fc146102ac57806346e8f8c11461036157806368cdb87c1461037f5780636be3643b146103ad5780637299339f146103db5761012c565b80630121b93f146101315780630abe7b941461015f5780632d35a8a2146101bb5780632fc219c8146101d95780633477ee2e146101f7575b600080fd5b61015d6004803603602081101561014757600080fd5b8101908080359060200190929190505050610802565b005b6101a16004803603602081101561017557600080fd5b81019080803573ffffffffffffffffffffffffffffffffffffffff1690602001909291905050506108f3565b604051808215151515815260200191505060405180910390f35b6101c3610913565b6040518082815260200191505060405180910390f35b6101e1610919565b6040518082815260200191505060405180910390f35b6102236004803603602081101561020d57600080fd5b810190808035906020019092919050505061091f565b6040518084815260200180602001838152602001828103825284818151815260200191508051906020019080838360005b8381101561026f578082015181840152602081019050610254565b50505050905090810190601f16801561029c5780820380516001836020036101000a031916815260200191505b5094505050505060405180910390f35b6102d8600480360360208110156102c257600080fd5b81019080803590602001909291905050506109e1565b6040518084815260200180602001838152602001828103825284818151815260200191508051906020019080838360005b83811015610324578082015181840152602081019050610309565b50505050905090810190601f1680156103515780820380516001836020036101000a031916815260200191505b5094505050505060405180910390f35b610369610aa3565b6040518082815260200191505060405180910390f35b6103ab6004803603602081101561039557600080fd5b8101908080359060200190929190505050610aa9565b005b6103d9600480360360208110156103c357600080fd5b8101908080359060200190929190505050610b9c565b005b610407600480360360208110156103f157600080fd5b8101908080359060200190929190505050610c8e565b6040518084815260200180602001838152602001828103825284818151815260200191508051906020019080838360005b83811015610453578082015181840152602081019050610438565b50505050905090810190601f1680156104805780820380516001836020036101000a031916815260200191505b5094505050505060405180910390f35b6104bc600480360360208110156104a657600080fd5b8101908080359060200190929190505050610d50565b6040518084815260200180602001838152602001828103825284818151815260200191508051906020019080838360005b838110156105085780820151818401526020810190506104ed565b50505050905090810190601f1680156105355780820380516001836020036101000a031916815260200191505b5094505050505060405180910390f35b6105876004803603602081101561055b57600080fd5b81019080803573ffffffffffffffffffffffffffffffffffffffff169060200190929190505050610e12565b604051808215151515815260200191505060405180910390f35b6105cd600480360360208110156105b757600080fd5b8101908080359060200190929190505050610e32565b005b6105d7610f25565b6040518082815260200191505060405180910390f35b61062f6004803603602081101561060357600080fd5b81019080803573ffffffffffffffffffffffffffffffffffffffff169060200190929190505050610f2b565b604051808215151515815260200191505060405180910390f35b61068b6004803603602081101561065f57600080fd5b81019080803573ffffffffffffffffffffffffffffffffffffffff169060200190929190505050610f4b565b604051808215151515815260200191505060405180910390f35b6106d1600480360360208110156106bb57600080fd5b8101908080359060200190929190505050610f6b565b6040518084815260200180602001838152602001828103825284818151815260200191508051906020019080838360005b8381101561071d578082015181840152602081019050610702565b50505050905090810190601f16801561074a5780820380516001836020036101000a031916815260200191505b5094505050505060405180910390f35b61079c6004803603602081101561077057600080fd5b81019080803573ffffffffffffffffffffffffffffffffffffffff16906020019092919050505061102d565b604051808215151515815260200191505060405180910390f35b6107e2600480360360208110156107cc57600080fd5b810190808035906020019092919050505061104d565b005b6107ec611140565b6040518082815260200191505060405180910390f35b6000803373ffffffffffffffffffffffffffffffffffffffff1673ffffffffffffffffffffffffffffffffffffffff16815260200190815260200160002060009054906101000a900460ff161561085857600080fd5b60008111801561086a5750600a548111155b61087357600080fd5b60016000803373ffffffffffffffffffffffffffffffffffffffff1673ffffffffffffffffffffffffffffffffffffffff16815260200190815260200160002060006101000a81548160ff021916908315150217905550600560008281526020019081526020016000206002016000815480929190600101919050555050565b60036020528060005260406000206000915054906101000a900460ff1681565b600a5481565b600c5481565b6005602052806000526040600020600091509050806000015490806001018054600181600116156101000203166002900480601f0160208091040260200160405190810160405280929190818152602001828054600181600116156101000203166002900480156109d15780601f106109a6576101008083540402835291602001916109d1565b820191906000526020600020905b8154815290600101906020018083116109b457829003601f168201915b5050505050908060020154905083565b6006602052806000526040600020600091509050806000015490806001018054600181600116156101000203166002900480601f016020809104026020016040519081016040528092919081815260200182805460018160011615610100020316600290048015610a935780601f10610a6857610100808354040283529160200191610a93565b820191906000526020600020905b815481529060010190602001808311610a7657829003601f168201915b5050505050908060020154905083565b600b5481565b600260003373ffffffffffffffffffffffffffffffffffffffff1673ffffffffffffffffffffffffffffffffffffffff16815260200190815260200160002060009054906101000a900460ff1615610b0057600080fd5b600081118015610b125750600c548111155b610b1b57600080fd5b6001600260003373ffffffffffffffffffffffffffffffffffffffff1673ffffffffffffffffffffffffffffffffffffffff16815260200190815260200160002060006101000a81548160ff021916908315150217905550600760008281526020019081526020016000206002016000815480929190600101919050555050565b600160003373ffffffffffffffffffffffffffffffffffffffff1673ffffffffffffffffffffffffffffffffffffffff16815260200190815260200160002060009054906101000a900460ff1615610bf357600080fd5b600081118015610c055750600b548111155b610c0e57600080fd5b60018060003373ffffffffffffffffffffffffffffffffffffffff1673ffffffffffffffffffffffffffffffffffffffff16815260200190815260200160002060006101000a81548160ff021916908315150217905550600660008281526020019081526020016000206002016000815480929190600101919050555050565b6009602052806000526040600020600091509050806000015490806001018054600181600116156101000203166002900480601f016020809104026020016040519081016040528092919081815260200182805460018160011615610100020316600290048015610d405780601f10610d1557610100808354040283529160200191610d40565b820191906000526020600020905b815481529060010190602001808311610d2357829003601f168201915b5050505050908060020154905083565b6007602052806000526040600020600091509050806000015490806001018054600181600116156101000203166002900480601f016020809104026020016040519081016040528092919081815260200182805460018160011615610100020316600290048015610e025780601f10610dd757610100808354040283529160200191610e02565b820191906000526020600020905b815481529060010190602001808311610de557829003601f168201915b5050505050908060020154905083565b60046020528060005260406000206000915054906101000a900460ff1681565b600360003373ffffffffffffffffffffffffffffffffffffffff1673ffffffffffffffffffffffffffffffffffffffff16815260200190815260200160002060009054906101000a900460ff1615610e8957600080fd5b600081118015610e9b5750600d548111155b610ea457600080fd5b6001600360003373ffffffffffffffffffffffffffffffffffffffff1673ffffffffffffffffffffffffffffffffffffffff16815260200190815260200160002060006101000a81548160ff021916908315150217905550600860008281526020019081526020016000206002016000815480929190600101919050555050565b600d5481565b60026020528060005260406000206000915054906101000a900460ff1681565b60006020528060005260406000206000915054906101000a900460ff1681565b6008602052806000526040600020600091509050806000015490806001018054600181600116156101000203166002900480601f01602080910402602001604051908101604052809291908181526020018280546001816001161561010002031660029004801561101d5780601f10610ff25761010080835404028352916020019161101d565b820191906000526020600020905b81548152906001019060200180831161100057829003601f168201915b5050505050908060020154905083565b60016020528060005260406000206000915054906101000a900460ff1681565b600460003373ffffffffffffffffffffffffffffffffffffffff1673ffffffffffffffffffffffffffffffffffffffff16815260200190815260200160002060009054906101000a900460ff16156110a457600080fd5b6000811180156110b65750600e548111155b6110bf57600080fd5b6001600460003373ffffffffffffffffffffffffffffffffffffffff1673ffffffffffffffffffffffffffffffffffffffff16815260200190815260200160002060006101000a81548160ff021916908315150217905550600960008281526020019081526020016000206002016000815480929190600101919050555050565b600e548156fea265627a7a723158207f48ec60cbd082bfe78e193bb7c2aa49c77be2aac096f69ad440fc324ccafb8264736f6c63430005100032",
  "source": "pragma solidity >=0.4.22 <0.8.0;\r\n\r\ncontract Election {\r\n    struct Candidate {\r\n        uint id;\r\n        string name;\r\n        uint voteCount;\r\n    }\r\n    \r\n    mapping(address => bool) public voters;\r\n    mapping(address => bool) public wm1Voters;\r\n    mapping(address => bool) public wm2Voters;\r\n    mapping(address => bool) public wm3Voters;\r\n    mapping(address => bool) public wm4Voters;\r\n    \r\n    mapping(uint => Candidate) public candidates;\r\n    mapping(uint => Candidate) public wm1Candidates;\r\n    mapping(uint => Candidate) public wm2Candidates;\r\n    mapping(uint => Candidate) public wm3Candidates;\r\n    mapping(uint => Candidate) public wm4Candidates;\r\n    \r\n    // Store Candidates Count\r\n    uint public candidatesCount;\r\n    uint public wm1CandidatesCount;\r\n    uint public wm2CandidatesCount;\r\n    uint public wm3CandidatesCount;\r\n    uint public wm4CandidatesCount;\r\n\r\n    constructor() public {\r\n        //Chairman Candidate\r\n        addCandidate(\"Chairman Candidate 1\");\r\n        addCandidate(\"Chairman Candidate 2\");\r\n        addCandidate(\"Chairman Candidate 3\");\r\n\r\n        //Word no 1 Member Candidate\r\n        wm1AddCandidate(\"Word-1 Member Candidate 1\");\r\n        wm1AddCandidate(\"Word-1 Member Candidate 2\");\r\n        wm1AddCandidate(\"Word-1 Member Candidate 3\");\r\n        wm1AddCandidate(\"Word-1 Member Candidate 4\");\r\n        wm1AddCandidate(\"Word-1 Member Candidate 5\");\r\n\r\n        //Word no 2 Member Candidate\r\n        wm2AddCandidate(\"Word-2 Member Candidate 1\");\r\n        wm2AddCandidate(\"Word-2 Member Candidate 2\");\r\n        wm2AddCandidate(\"Word-2 Member Candidate 3\");\r\n        wm2AddCandidate(\"Word-2 Member Candidate 4\");\r\n        wm2AddCandidate(\"Word-2 Member Candidate 5\");\r\n\r\n        //Word no 3 Member Candidate\r\n        wm3AddCandidate(\"Word-3 Member Candidate 1\");\r\n        wm3AddCandidate(\"Word-3 Member Candidate 2\");\r\n        wm3AddCandidate(\"Word-3 Member Candidate 3\");\r\n        wm3AddCandidate(\"Word-3 Member Candidate 4\");\r\n\r\n        //Word no 4 Member Candidate\r\n        wm4AddCandidate(\"Word-4 Member Candidate 1\");\r\n        wm4AddCandidate(\"Word-4 Member Candidate 2\");\r\n    }\r\n\r\n    function addCandidate (string memory _name) private {\r\n        candidatesCount ++;\r\n        candidates[candidatesCount] = Candidate(candidatesCount, _name, 0);\r\n    }\r\n\r\n    function wm1AddCandidate (string memory _name) private {\r\n        wm1CandidatesCount ++;\r\n        wm1Candidates[wm1CandidatesCount] = Candidate(wm1CandidatesCount, _name, 0);\r\n    }\r\n\r\n    function wm2AddCandidate (string memory _name) private {\r\n        wm2CandidatesCount ++;\r\n        wm2Candidates[wm2CandidatesCount] = Candidate(wm2CandidatesCount, _name, 0);\r\n    }\r\n\r\n    function wm3AddCandidate (string memory _name) private {\r\n        wm3CandidatesCount ++;\r\n        wm3Candidates[wm3CandidatesCount] = Candidate(wm3CandidatesCount, _name, 0);\r\n    }\r\n\r\n    function wm4AddCandidate (string memory _name) private {\r\n        wm4CandidatesCount ++;\r\n        wm4Candidates[wm4CandidatesCount] = Candidate(wm4CandidatesCount, _name, 0);\r\n    }\r\n\r\n    function vote (uint _candidateId) public {\r\n        // require that they haven't voted before\r\n        require(!voters[msg.sender]);\r\n\r\n        // require a valid candidate\r\n        require(_candidateId > 0 && _candidateId <= candidatesCount);\r\n\r\n        // record that voter has voted\r\n        voters[msg.sender] = true;\r\n\r\n        // update candidate vote Count\r\n        candidates[_candidateId].voteCount++;\r\n        \r\n        // trigger voted event\r\n        //emit votedEvent(_candidateId);\r\n    }\r\n\r\n     function wm1Vote (uint _candidateId) public {\r\n        // require that they haven't voted before\r\n        require(!wm1Voters[msg.sender]);\r\n\r\n        // require a valid candidate\r\n        require(_candidateId > 0 && _candidateId <= wm1CandidatesCount);\r\n\r\n        // record that voter has voted\r\n        wm1Voters[msg.sender] = true;\r\n\r\n        // update candidate vote Count\r\n        wm1Candidates[_candidateId].voteCount++;\r\n        \r\n        // trigger voted event\r\n        //emit votedEvent(_candidateId);\r\n    }\r\n\r\n    function wm2Vote (uint _candidateId) public {\r\n        // require that they haven't voted before\r\n        require(!wm2Voters[msg.sender]);\r\n\r\n        // require a valid candidate\r\n        require(_candidateId > 0 && _candidateId <= wm2CandidatesCount);\r\n\r\n        // record that voter has voted\r\n        wm2Voters[msg.sender] = true;\r\n\r\n        // update candidate vote Count\r\n        wm2Candidates[_candidateId].voteCount++;\r\n        \r\n        // trigger voted event\r\n        //emit votedEvent(_candidateId);\r\n    }\r\n\r\n    function wm3Vote (uint _candidateId) public {\r\n        // require that they haven't voted before\r\n        require(!wm3Voters[msg.sender]);\r\n\r\n        // require a valid candidate\r\n        require(_candidateId > 0 && _candidateId <= wm3CandidatesCount);\r\n\r\n        // record that voter has voted\r\n        wm3Voters[msg.sender] = true;\r\n\r\n        // update candidate vote Count\r\n        wm3Candidates[_candidateId].voteCount++;\r\n        \r\n        // trigger voted event\r\n        //emit votedEvent(_candidateId);\r\n    }\r\n\r\n    function wm4Vote (uint _candidateId) public {\r\n        // require that they haven't voted before\r\n        require(!wm4Voters[msg.sender]);\r\n\r\n        // require a valid candidate\r\n        require(_candidateId > 0 && _candidateId <= wm4CandidatesCount);\r\n\r\n        // record that voter has voted\r\n        wm4Voters[msg.sender] = true;\r\n\r\n        // update candidate vote Count\r\n        wm4Candidates[_candidateId].voteCount++;\r\n        \r\n        // trigger voted event\r\n        //emit votedEvent(_candidateId);\r\n    }\r\n}\r\n",
  "sourcePath": "C:\\Users\\masud\\Downloads\\Project\\Decentralized Voting System\\contracts\\Election.sol",
  "compiler": {
    "name": "solc",
    "version": "0.5.16+commit.9c3226ce.Emscripten.clang"
  },
  "schemaVersion": "3.4.4",
  "updatedAt": "2022-10-12T04:40:57.332Z",
  "networkType": "ethereum",
  "devdoc": {
    "methods": {}
  },
  "userdoc": {
    "methods": {}
  }
}